:020000040000FA
:060000000A128A110C280F
:10000800FE00030EF0000A08F1000A168A11C02B40
:100018000A128A110F288313DC30FD000630FE0017
:10002800E430FF00C33084000A128A15FE200A1249
:100038008A115D30FD001030FE00C730FF005730D8
:1000480084000A128A15FE200A128A11A030840040
:10005800C3300A168A11D4200A128A113D3084004E
:1000680057300A168A11D4200A128A11FA01FB01A4
:1000780083010A128A114028013083160317A3004E
:10008800831603135908831603179D008316031359
:100098005A08831603179E00831603135B088316FA
:1000A80003179F00C3308400903083120313B900F4
:1000B8000C30BA0083130008BB00040ABC003908DE
:1000C800840083173B088000040AB9003C088400B8
:1000D800BA0B5E2883160317A0010A168A1130246A
:1000E8000A128A11D430F7008830F80000300A1656
:1000F8008A1183220A128A119D3083120313A100E8
:100108000130A200A3010A168A117E260A128A115A
:100118000A30F6000030F7000A168A1157210A1231
:100128008A117308F9007208F8000A168A11ED247A
:100138000A128A11760883160317A2006430220275
:10014800031CA728A828AA286330A2000A128A1527
:100158000D210A128A1183160317A4003E302406C3
:10016800031DB728B828D5289D30F200EE30F300DB
:100178008830F4000A168A11F0210A128A119D307B
:1001880083120313A1000130A2008316031722086B
:1001980083120313A3000A168A117E260A128A11F3
:1001A800872B3D302406031DDA28DB280C2906306E
:1001B80020020318E028E1280C299D30F2002008CD
:1001C80083120313B9003907903E8400831700088F
:1001D800F300840A00088403F4000A168A11F02147
:1001E8000A128A11013083160317A0079D30831263
:1001F8000313A1000130A2008316031722088312FB
:100208000313A3000A168A117E260A128A11872B65
:100218003B302406031D112912292F292008031910
:10022800162917292F290130A0029D30F200200835
:1002380083120313B9003907903E8400831700081E
:10024800F300840A00088403F4000A168A11F021D6
:100258000A128A11FA283730240603193429352955
:100268003B292F302406031D3A293B296F292303F4
:10027800031D3F2940296F290A168A1134210A12C1
:100288008A119C30F6008730F7008030F8000A1693
:100298008A112F230A128A11F201C6300A168A110E
:1002A800AF210A128A11F2010F300A168A11AF2102
:1002B8000A128A11A53083120313B900B90B6229F7
:1002C8006529023083160317A3006030A10083124A
:1002D80003131215872B80302406031D74297529F2
:1002E8001D2A03302306031D7A297B291D2A0C2A7F
:1002F8000A168A1134210A128A116930F6008730E9
:10030800F7008030F8000A168A112F230A128A1182
:10031800083083160317A3002030A100872B0A1684
:100328008A1134210A128A11093083160317A3008F
:100338004030A100872B0A168A1134210A128A112B
:10034800E83083120313A1008830A2008316031734
:10035800220883120313A3000A168A117E260A12A2
:100368008A113330F6008730F7008030F8000A161B
:100378008A112F230A128A112030F6008730F700DD
:10038800C030F8000A168A112F230A128A110A129D
:100398008A1550220A128A11333083120313BB00C4
:1003A800BB30BA00DF30B900B90BD829BA0BD8294D
:1003B800BB0BD829033083160317A3005030A100C4
:1003C800872B0A168A1134210A128A1111308316D2
:1003D8000317A30069290A168A1134210A128A11FF
:1003E800F73083120313A1008830A2008316031785
:1003F800220883120313A3000A168A117E260A1202
:100408008A11123083160317A3003030A100872BFE
:100418001C08003A03197C29013A03199329033A65
:1004280003199F29013A0319E529073A0319EF2906
:10043800872B80302406031D222A232A312A0830DC
:100448002306031D282A292A312A0330A3000A1665
:100458008A1134210A128A11872B80302406031D41
:10046800362A372A3E2A11302306031D3C2A3D2A04
:100478003E2A292A90302406031D432A442A4D2A5D
:1004880003302306031D492A4A2A4D2A0130A300B6
:100498002B2A872B9D3083120313A500831603177D
:1004A800220883120313A6000A168A117C250A1251
:1004B8008A11A02B013083160317A300831203139C
:1004C8001211F2010C300A168A11AF210A128A1190
:1004D800A53083120313B900B90B702A732AA02B15
:1004E800033083160317A3007030A100831203138F
:1004F8001215F2010C300A168A11AF210A128A115C
:10050800A53083120313B900B90B882A8B2A8C28CB
:10051800210883120313A5008316031724080A125F
:100528008A154A260A128A110A3A03195E2A013ADA
:100538000319742AA02B0A168A1134210A128A1167
:10054800013083160317A300831203131211A02B83
:10055800831603179C01A02B0130831603179C00F8
:10056800A02B0230831603179C00A02B03308316A0
:1005780003179C00A02B0430831603179C00A02BA4
:10058800210883120313A5008316031724080A12EF
:100598008A1599210A128A11003A0319AC2A013ADC
:1005A8000319B02A033A0319B52A013A0319BA2ADA
:1005B800073A0319BF2A0E3A03199F2AA02B2108CC
:1005C80083120313A5008316031724080A128A1539
:1005D8006C230A128A11A02B21080A168A11D92223
:1005E8000A128A110C3A031DFA2AFB2A0A2B1A301E
:1005F80083120313BB005E30BA006D30B900B90B2B
:10060800032BBA0B032BBB0B032B0A2B403083168F
:1006180003172106031D112B122B232BE530831200
:100628000313A1008830A20083160317220883123F
:100638000313A3000A168A117E260A128A110330B0
:1006480083160317A3005030A1000A168A1134211B
:100658000A128A11A02B1A3083120313BB005E30D2
:10066800BA006D30B900B90B372BBA0B372BBB0B5F
:10067800372B3E2BF13083120313A1008830A200E0
:1006880083160317220883120313A3000A168A117C
:100698007E260A128A11232B013083160317A30022
:1006A8005030A100A02B210883120313A500831644
:1006B800031724080A128A15AC240A128A110A3A66
:1006C8000319502B063A03192F2BA02B210883124C
:1006D8000313A5008316031724080A128A11A823F6
:1006E8000A128A110C3A031D7A2B7B2BA02B03309C
:1006F80083160317A3005030A1000A168A1134216B
:100708000A128A118C28831603172308013A031941
:100718004E2A033A03198C2A013A0319C42A0B3AC0
:100728000319E32A013A0319F02A183A0319572B37
:10073800033A03196A2BA02B803083160317A100F4
:100748008C280A128A110C2883120313A90030304E
:100758002506031DB02BB12B3E2C0A168A113A2709
:100768000A128A110F3083160313390583120313F3
:10077800A6008316031338080F3983120313A70042
:10078800A8012708F2002808F3000A30F400003016
:10079800F5000A168A1111220A128A11831203130C
:1007A80026087207BD000030031801307307BE0029
:1007B8000F30831603133B0583120313A600831619
:1007C80003133A080F3983120313A700A801270857
:1007D800F2002808F3000A30F4000030F5000A1689
:1007E8008A1111220A128A1183120313260872072A
:1007F800BF000030031801307307C0000F308316A4
:1008080003133D0583120313A600831603133C0844
:100818000F3983120313A700A8012708F20028083C
:10082800F3000A30F4000030F5000A168A1111228C
:100838000A128A118312031326087207C1000030B6
:10084800031801307307C2000130F6008830F70042
:100858008030F8000A168A112F230A128A110230F2
:1008680083120313C8000030C900D301D201D1019B
:100878003F30A90051080319422C432C522D0D304A
:100888007D2E4808A60026073D3E840001308313CC
:100898008007840A0318800A5D2D0330F2000030B7
:1008A800F3004808013EF40049080318013E003EE1
:1008B800F5000A168A11F8230A128A11730883129E
:1008C8000313C9007208C8005D2D0A168A113A2759
:1008D8000A128A110A30F2000030F300831203135F
:1008E8003E08F5003D08F4000A168A11F8230A129A
:1008F8008A11720883120313A6007308A7000A302E
:10090800F6000030F7003E08F9003D08F8000A1626
:100918008A11ED240A128A11760883120313A8009B
:1009280003300310A80DFF3E031D952C0310280D5E
:100938002604AA004308C0392A04C3004308F30068
:1009480002300A168A1191210A128A110A30F2001D
:100958000030F300831203134008F5003F08F40049
:100968000A168A11F8230A128A11720883120313CD
:10097800A6007308A7000A30F6000030F700400808
:10098800F9003F08F8000A168A11ED240A128A11A4
:10099800760883120313A80003300310A80DFF3E46
:1009A800031DD12C0310280D2604AA004408803901
:1009B8002A04C4004408F30001300A168A11912160
:1009C8000A128A110A30F2000030F300831203136E
:1009D8004208F5004108F4000A168A11F8230A12A1
:1009E8008A11720883120313A6007308A7000A303D
:1009F800F6000030F7004208F9004108F8000A162E
:100A08008A11ED240A128A11760883120313A800AA
:100A180003300310A80DFF3E031D0D2D0310280DF4
:100A28002604AA00450880392A04C5004508F300B1
:100A380000300A168A1191210A128A110A168A119F
:100A480034210A128A115A30F6008830F7008230B1
:100A5800F8000A168A112F230A128A118130F6002B
:100A68008830F700C230F8000A168A112F230A12BC
:100A78008A11013083120313D1001A308312031331
:100A8800A8005E30A7006D30A600A60B492DA70B65
:100A9800492DA80B492D502D0C307D2E29082F3AB1
:100AA8000319512C183A0319452CB73A0319692C24
:100AB8005D2D00303E02183003193D02031C652DE0
:100AC800662D682DBD01BE01003040023C3003197F
:100AD8003F02031C702D712D732DBF01C001003022
:100AE80042023C3003194102031C7B2D7C2D7E2DD4
:100AF800C101C2010130D30702305306031D852D01
:100B0800862DD82DD301520803198B2D8D2D013038
:100B18008E2D0030D20052080319932D942DD82D14
:100B2800C82D5430F6008730F700C030F8000A1698
:100B38008A112F230A128A11053083120313A80081
:100B48000F30A700F030A600A60BA82DA70BA82DE4
:100B5800A80BA82D0000D82D5430F6008730F700D8
:100B6800C330F8000A168A112F230A128A11A02D01
:100B78005430F6008730F700C630F8000A168A119C
:100B88002F230A128A11A02D4908003A0319CD2DE6
:100B9800D82D4808003A0319952D013A0319B02DAC
:100BA800033A0319BC2DD82DC03083120313A300B8
:100BB8000A30F6000030F7003E08F9003D08F8005A
:100BC8000A168A11ED240A128A117608303E0A168E
:100BD8008A117C210A128A11C13083120313A300DF
:100BE8000A30F2000030F3003E08F5003D08F4003A
:100BF8000A168A11F8230A128A117208303E0A1658
:100C08008A117C210A128A11C23083120313A300AD
:100C18003A300A168A117C210A128A11C3308312CB
:100C28000313A3000A30F6000030F7004008F9006B
:100C38003F08F8000A168A11ED240A128A1176086C
:100C4800303E0A168A117C210A128A11C430831296
:100C58000313A3000A30F2000030F3004008F50047
:100C68003F08F4000A168A11F8230A128A1172083A
:100C7800303E0A168A117C210A128A11C530831265
:100C88000313A3003A300A168A117C210A128A112A
:100C9800C63083120313A3000A30F6000030F700B1
:100CA8004208F9004108F8000A168A11ED240A12D0
:100CB8008A117608303E0A168A117C210A128A1196
:100CC800C73083120313A3000A30F2000030F30088
:100CD8004208F5004108F4000A168A11F8230A129E
:100CE8008A117208303E0A168A117C210A128A116A
:100CF800432C0800003083120313A4000030A30023
:100D08000030A2000030A100750874047304720456
:100D180003198F2E902EDB2E0130A5009E2E013058
:100D2800A0000310F20DF30DF40DF50DA00B952E98
:100D38000130A507F51FA12EA22E932E0130A00089
:100D48000310A10DA20DA30DA40DA00BA42E7508D0
:100D58007902031DB92E74087802031DB92E730891
:100D68007702031DB92E72087602031CBC2EBD2E15
:100D7800CC2E7208F6027308031C730FF70274086E
:100D8800031C740FF8027508031C750FF90221146F
:100D980001300310F50CF40CF30CF20CFF3E031DAC
:100DA800CD2E0130A502031DDA2EDB2EA22E24083B
:100DB800F5002308F4002208F3002108F2000800D7
:100DC800F4348834EB348834D9348834DC348834C7
:100DD800DF348834E2348834AE3488349B34883441
:100DE800743488343E348834A53488344F344E34CF
:020DF8000034C5
:100E000023342034203420342034203454346934C2
:100E10006D346534203420342034203420342034A0
:100E200020344534763465346E34743420342034C0
:100E300020342034533470346534653464340034E1
:100E40002034203420342034203454346534723437
:100E5000613420345434653472346D342034203499
:100E60002034203400342034203420342034203402
:100E7000203420344F34703465346E3420342034C0
:100E800020342034203420340034203420342034E2
:100E900020342034203420342034203420342034B2
:100EA00020342034203420342034203400344E3494
:100EB0006F3420346C346F346734733420346134CD
:100EC0007634613469346C34613462346C34653442
:100ED00000342034203420342034203420344C3466
:100EE0006F34673473342034203420342034203479
:100EF0002034003420342034203420344E346F34F5
:100F000020346C346F34673473342034203420340C
:100F100020342034003445346E34743465347234F3
:100F200020346E346534773420347034773464344C
:100F30003A34203420340034203445346E34743450
:100F400065347234203450346134733473347734FC
:100F50006F347234643420340034203420345434F8
:100F600049344D3445342034203420342034203466
:100F700045342034203453345034003450346134F8
:100F80007334733477346F3472346434203463349C
:100F9000683461346E3467346534643400345234F8
:100FA00065342D3465346E347434653472342034D1
:100FB0006E346534773420347034773464340034DC
:100FC000503461347334733477346F34723464342E
:100FD000203420346334683461346E3467346534CB
:100FE0000034573472346F346E34673420347034C4
:100FF00061347334733477346F347234643420342E
:101000000034543469346D34653420342834483421
:1010100048343A344D344D343A345334533429340B
:10102000003459346F34753420346134723465348B
:10103000203462346C346F3463346B34653464341C
:10104000003461347434743465346D347034743401
:1010500020346C34653466347434203420340034E5
:101060007334753463346334653473347334663481
:1010700075346C346C34793420340034433468343F
:1010800061346E34673465342034703461347334C1
:1010900073347734643400344C346F3467346934D7
:1010A0006E342034533475346334633465347334AC
:1010B00073340034543469346D346534203463340B
:1010C000683461346E3467346534643400344C34CD
:1010D0006F3467347334203463346C346534613472
:1010E000723465346434003444346F3477346E348D
:1010F0006C346F346134643420346C346F3467344E
:101100000034533475346334633465347334733466
:10111000663475346C346C3479340034733475341B
:1011200063346334653473347334663475346C34C7
:101130006C347934003443346C3465346134723443
:1011400020346C346F346734003453346534743471
:101150002034743469346D34653400345634693461
:101160006534773420346C346F346734003457344A
:10117000613469347434203466346F34723400342A
:101180004C346F346734733420343A34003466346A
:10119000613469346C3465346434003473346534D8
:1011A00063347334203400343134303431343034E7
:1011B0000034473431340034473432340034473457
:1011C0003334003447343434003443344C34003442
:1011D00044344C34003447344E34003443344F34B8
:1011E00000344334503400344734523400345334E0
:1011F000543400347E088A007F0882000A128A155F
:10120000FA200A128A158000840A04087D06031950
:101210000034FF0A0319FE0AFE288312031306088E
:10122000F2003F30F2053F307206031918291929E0
:1012300025297A08031D1D291E2925290130FA00B8
:10124000C601C7017208D00042293F307206031D53
:101250002A292B2942297A03031D2F2930294229C3
:10126000FA014708803AFF0080307F02031D3A29C7
:101270000F30460203183D293E29422983120313E9
:10128000500898297A03031D462947295F298312AC
:1012900003134708803AFF0080307F02031D522964
:1012A000103046020318552956295F290130831250
:1012B0000313C6070318C70A0030C70797297A0324
:1012C000031D632964297B2910308312031346060A
:1012D0004704031D6C296D297B2937307206031DD5
:1012E000722973297B290130C6070318C70A003009
:1012F000C707803098297A03031D7F298029972901
:1013000010308312031346064704031D88298929D8
:1013100097292F307206031D8E298F2997290130B6
:10132000C6070318C70A0030C707903098293F3016
:10133000080083120313A8005C08031DA029A1293B
:10134000A3290A304F2A70302506031DA829A92990
:10135000B1290F30DC00D5010A168A1134210A1296
:101360008A153730831203132806031DB829B929BB
:10137000C82955080319BD29BE29C8290F30DC002A
:101380000130D5020A168A1134210A128A15D92988
:101390002F302806031DCD29CE29D9290430550226
:1013A0000318D329D429D9290F30DC000130D507FF
:1013B000C22904308312031355020318E029E129DE
:1013C000142A8030A3002A300A168A117C210A12BE
:1013D0008A15831203135508A6002607CF3E840002
:1013E00083130008F600840A00088403F7008230A3
:1013F000F8000A168A112F230A128A158312031382
:101400005508A6002607D13E840083130008F60085
:10141000840A00088403F700C230F8000A168A1113
:101420002F230A128A154C2A04305506031D192A47
:101430001A2A4C2A5508A6002607CD3E840083139D
:101440000008F600840A00088403F7008230F800E0
:101450000A168A112F230A128A15831203135508BC
:10146000A6002607CF3E840083130008F600840AF6
:1014700000088403F700C230F8000A168A112F23EF
:101480000A128A15C03083120313A3002A300A16E9
:101490008A117C210A128A15831203135508080049
:1014A000FF3083120313AE00FF30AF00AA01570ACA
:1014B000031D5E2A580A031D5E2A5F2A692A5730D7
:1014C000F3008730F4000A168A1136220A128A15B0
:1014D0006B2BC030F3008830F4000A168A113622D4
:1014E0000A128A150A300A168A1104210A128A156C
:1014F0000030F3008730F4000A168A1136220A12EF
:101500008A150A300A168A1104210A128A150D302A
:101510000A168A1104210A128A155B2B83120313FF
:101520002E08013EAC002F080318013E003EAD001E
:101530000130AE070318AF0A0030AF07B001B101A8
:101540000A30F200831203132C080A168A1169214B
:101550000A128A15831203133007053EAB003008C8
:10156000203E84002B080A168A1104230A128A15C9
:1015700083138000013083120313B0070318B10AEC
:101580000030B1073108803AFF0080307F02031D30
:10159000CB2A0A303002031CCE2ACF2AA02A83127B
:1015A00003132E08303E0A168A1104210A128A15E6
:1015B0005130F3008730F4000A168A1136220A12DD
:1015C0008A158312031320080A168A1104210A12AD
:1015D0008A158312031321080A168A1104210A129C
:1015E0008A153A300A168A1104210A128A158312C2
:1015F000031322080A168A1104210A128A1583127B
:10160000031323080A168A1104210A128A153A3094
:101610000A168A1104210A128A1583120313240858
:101620000A168A1104210A128A1583120313250847
:101630000A168A1104210A128A155330F3008730E2
:10164000F4000A168A1136220A128A15831203132D
:1016500026080A168A1104210A128A158312031316
:1016600027080A168A1104210A128A154E30F3003F
:101670008730F4000A168A1136220A128A1583125C
:10168000031328080A168A1104210A128A158312E4
:10169000031329080A168A1104210A128A150A302E
:1016A0000A168A1104210A128A150D300A168A11A7
:1016B00004210A128A15831203132F08803AF600B8
:1016C0005808803A7602031D672B57082E02031C28
:1016D0006A2B6B2B8E2A080083120313B600B2010B
:1016E000570A031D772B580A031D772B782B8F2B56
:1016F0004630F6008730F7008030F8000A168A116D
:101700002F230A128A157A30F6008730F700C0308E
:10171000F8000A168A112F230A128A15AB2C2030E2
:101720002506031D942B952B972BCC01CD0137302B
:101730003606031D9C2B9D2BBF2B4D08803AA6001F
:101740005808803A2602031DA72B57084C0203189D
:10175000AA2BAB2BBF2B013083120313CC0703182A
:10176000CD0A0030CD074630F6008730F700C03094
:10177000F8000A168A112F230A128A15E72B2F3038
:10178000831203133606031DC62BC72BE72B4D0808
:10179000803AFF0080307F02031DD02B01304C02C5
:1017A000031CD32BD42BE72BFF3083120313CC075E
:1017B0000318CD0AFF30CD074630F6008730F7001A
:1017C000C030F8000A168A112F230A128A158312D4
:1017D00003134D08B4004C08B300B701B8010A3038
:1017E000F2008312031333080A168A1169210A12C0
:1017F0008A15831203133707053EB5003708283EC4
:10180000840035080A168A1104230A128A158313E4
:101810008000013083120313B7070318B80A0030A1
:10182000B8073808803AFF0080307F02031D1A2C69
:101830000A303702031C1D2C1E2CEF2BC0308312E4
:101840000313A3004C08303E0A168A117C210A12A9
:101850008A15C23083120313A30028080A168A11BE
:101860007C210A128A15C33083120313A3002908AE
:101870000A168A117C210A128A15C43083120313B6
:10188000A3003A300A168A117C210A128A15C53043
:1018900083120313A3002A080A168A117C210A1254
:1018A0008A15C63083120313A3002B080A168A1167
:1018B0007C210A128A15C73083120313A3003A3021
:1018C0000A168A117C210A128A15C8308312031362
:1018D000A3002C080A168A117C210A128A15C93025
:1018E00083120313A3002D080A168A117C210A1201
:1018F0008A15CB3083120313A3002E080A168A110F
:101900007C210A128A15CC3083120313A3002F08FE
:101910000A168A117C210A128A15CE30831203130B
:10192000A30030080A168A117C210A128A15CF30CA
:1019300083120313A30031080A168A117C210A12AC
:101940008A15043083120313A7003D30A600A60BAE
:10195000A72CA70BA72C080083120313A9000130A2
:1019600083160313A2070318A30A0030A307063047
:1019700022062304031DBD2CBE2CCA2CA201A301E8
:101980008312031354080319C62CC82C0130C92C28
:101990000030D400603083122506031DD02CD12CDA
:1019A000E72CAF30F2005230F3008730F4000430FF
:1019B000F5000030F6000A168A11A9240A128A15C9
:1019C00083120313CA01CB01FB010530DC005C0864
:1019D000031DEB2CEC2CEE2C0A30492E7B0803194E
:1019E000F22CF32CF52C0D30492E4B08803AFF00D9
:1019F00080307F02031DFE2C04304A020318012DA3
:101A0000022D282D8B30F6008730F7008030F8004B
:101A10000A168A112F230A128A15831203135408F7
:101A2000031D132D142D1E2D4A08C03EA300FF30A8
:101A30000A168A117C210A128A15C42D4A08C03E52
:101A4000A30020300A168A117C210A128A15C42D9F
:101A5000831203134B08803AFF0080307F02031D7E
:101A6000332D04304A02031C362D372DC42D83122A
:101A700003134B08803AFF0080307F02031D422D84
:101A800008304A020318452D462DC42DCF30F600EC
:101A90008730F7008030F8000A168A112F230A12C7
:101AA0008A15831203135408031D572D582D622DD8
:101AB0004A08C03EA300FF300A168A117C210A1290
:101AC0008A15C42D4A08C03EA30020300A168A1188
:101AD0007C210A128A15C42D4A08AF3E840030309A
:101AE000831380004A08C03EA3002A300A168A11D8
:101AF0007C210A128A15013083120313CA070318C6
:101B0000CB0A0030CB070530DC0004304A064B041A
:101B1000031D8B2D8C2DCE2D4530F6008730F70020
:101B2000C030F8000A168A112F230A128A15CE2D0A
:101B30004A08AF3E84003130831380004A08C03E1B
:101B4000A3002A300A168A117C210A128A15013054
:101B500083120313CA070318CB0A0030CB070530E2
:101B6000DC0004304A064B04031DB72DB82DCE2DE2
:101B70004530F6008730F700C030F8000A168A11A9
:101B80002F230A128A15CE2D8312031329082F3A08
:101B900003196C2D183A0319982DCE2D0830831295
:101BA00003134A064B04031DD62DD72DF32CAF305B
:101BB000F200B330F3000430F4000030F5000A16F0
:101BC0008A1131250A128A1572087304031DE92D42
:101BD000EA2D2D2E83160313B701B330F700003022
:101BE000F80000300A168A1183220A128A15013081
:101BF00083120313CA070318CB0A0030CB070A1657
:101C00008A1134210A128A15BE30F6008730F70097
:101C10008030F8000A168A112F230A128A153030F4
:101C2000F6008830F700C230F8000A168A112F2318
:101C30000A128A150130FB001A3083120313A80020
:101C40005E30A7006D30A600A60B242EA70B242E15
:101C5000A80B242E2B2E0C30492E0A168A11342163
:101C60000A128A15E030F6008730F7008030F8005D
:101C70000A168A112F230A128A15C730F6008830F7
:101C8000F700C530F8000A168A112F230A128A15A8
:101C90001A2E080083120313AD0060302506031DC1
:101CA000522E532E622E0330DB0083160313BF0126
:101CB000C001C101C20183120313D6013F30AD0040
:101CC0000530DC005C08031D662E672E692E0A3085
:101CD000FF2F023083120313A8004530A700A9305C
:101CE000A600A60B712EA70B712EA80B712E3730F4
:101CF000831203132D06031D7E2E7F2E9B2E043090
:101D000056020318842E852E9B2E5608BF3E840053
:101D10003130831380005608C63EA3002A300A16CD
:101D20008A117C210A128A15013083120313D60707
:101D30000530DC00B72E2F302D06031DA02EA12E5E
:101D4000B72E043056020318A62EA72EB72E56081B
:101D5000BF3E84003030831380005608C63EA30087
:101D60002A300A168A117C210A128A15942E043010
:101D70005606031DBC2EBD2EFE2FAE01AF018312F1
:101D800003132E08293E84002E080A168A11042304
:101D90000A128A1583138000013083120313AE07E1
:101DA0000318AF0A0030AF072F08803AFF008030D9
:101DB0007F02031DDD2E04302E02031CE02EE12ED7
:101DC000BF2E2930F200BF30F3000430F4000030A1
:101DD000F5000A168A1131250A128A157208730451
:101DE000031DF32EF42E222F0A168A1134210A1213
:101DF0008A15F2010C300A168A11AF210A128A15CF
:101E0000A53083120313A600A60B042F072F4C3016
:101E1000F6008830F7008130F8000A168A112F2367
:101E20000A128A154D3083120313A8001930A70037
:101E30004F30A600A60B1A2FA70B1A2FA80B1A2F8C
:101E40000B30FF2F013083120313DB025B08031DED
:101E50002A2F2B2F9F2F0A168A1134210A128A1536
:101E6000F2010C300A168A11AF210A128A15A53028
:101E700083120313A600A60B3B2F3E2F1130F60052
:101E80008830F7008030F8000A168A112F230A12D2
:101E90008A15B730F6008830F700C030F8000A160F
:101EA0008A112F230A128A15CE30F6008830F700E7
:101EB000CC30F8000A168A112F230A128A153C30FA
:101EC00083120313CE000030CF00942FC930A3003B
:101ED0000A30F6000030F7004F08F9004E08F8000D
:101EE0000A168A11ED240A128A157608303E0A165F
:101EF0008A117C210A128A15CA3083120313A300A7
:101F00000A30F2000030F3004F08F5004E08F400EC
:101F10000A168A11F8230A128A157208303E0A1628
:101F20008A117C210A128A15831203134E084F046A
:101F3000031D9B2F9C2F662F0330DB00D42F0A1626
:101F40008A1134210A128A15F130F6008730F70021
:101F50008030F8000A168A112F230A128A15C03021
:101F600083120313A3005B08303E0A168A117C21FA
:101F70000A128A152130F6008830F700C230F800C6
:101F80000A168A112F230A128A1566308312031348
:101F9000A8007630A700C030A600A60BCD2FA70B57
:101FA000CD2FA80BCD2F00000A168A1134210A125A
:101FB0008A159C30F6008730F7008030F8000A164A
:101FC0008A112F230A128A1583120313D6010530B2
:101FD000DC00F201C6300A168A11AF210A128A15F6
:101FE000F2010F300A168A11AF210A128A15A530A4
:101FF00083120313A600A60BFB2FFE2FFF30080051
:10200000FF1B0A2883137F1883170008840A03190B
:10201000FF0A08007F087F398A000408840A031930
:04202000FF0A820031
:102182008316031306083F3886000800FF34FF3425
:10219200FF34FF3403340534831603139F1783126D
:1021A20003131F14080064008001840A0406031943
:1021B20000340406D5280A168A111A210A168A1131
:1021C20083160313111408000A168A111A210A161B
:1021D2008A118316031311150800F2000A168A11D8
:1021E2001A210A168A117208831203139300080037
:1021F2000A168A11E5200A168A110A168A11DC20AB
:102202000A168A110800F200720883120313990059
:102212000C1E0C290D2909290C1208008316031320
:102222008801091189100A168A1127260A168A11AD
:1022320008008316031314191F2920291A291108CB
:102242001F39031D252926291A2908008312031381
:1022520012149214FA308316031392008C14831210
:10226200031312150800F20101300A168A11AF2178
:102272000A168A110430F7003D30F600F60B3F29AA
:10228200F70B3F294429080000300A168A11AE22B2
:102292000A168A11F6007F30F6057608F300003040
:1022A2000A168A1191210A168A1108008312031351
:1022B2001F151F195D295E295A291E08F50083166C
:1022C20003131E08F4007508F3007408F2000800F6
:1022D200F400F301741C6E296F2971297208F30747
:1022E2000310F20D0310F40C7408031D79297A29E6
:1022F2006B297308080083120313A400F201230858
:102302000A168A11AF210A168A11F201F20A831201
:10231200031324080A168A11AF210A168A1108002B
:10232200F4000A168A11DC200A168A11D0300A1625
:102332008A11EE200A168A1174080A168A11EE20F2
:102342000A168A1173080A168A11EE200A168A11D1
:102352000A168A11E5200A168A110800F500721879
:10236200B329B729831203130915BA298312031358
:102372000911750888008914A630F300F30BBF29F0
:1023820000008312031389101B30F4009E30F30007
:10239200F30BC929F40BC92900000800F2000A1640
:1023A2008A111A210A168A118316031391150A1625
:1023B2008A111A210A168A11831203131308F300D1
:1023C2007203031DE529E629EA29831603139116F0
:1023D200ED2983160313911211167308080072086F
:1023E200F7007408F6007308F500F30A0319F40AFB
:1023F200760883120313FF00750884000A168A11F7
:1024020000200A168A11FF007708F70A84007F0865
:10241200831780000008031D0F2A102AF2290800E2
:10242200F601F701721C162A172A1D2A7408F607EC
:102432000318F70A7508F70701300310F40DF50DBC
:10244200FF3E031D1E2A01300310F30CF20CFF3E67
:10245200031D252A72087304031D302A312A132A08
:102462007708F3007608F20008004B2A7408FF0090
:10247200730884000A168A1100200A168A110A16A5
:102482008A1104210A168A110130F3070318F40A8B
:102492000030F407740883120313FF0073088400EA
:1024A2000A168A1100200A168A11003A031D5A2AB6
:1024B2005B2A372A0800F6000A168A11DC200A165F
:1024C2008A11A0300A168A11EE200A168A1176089D
:1024D2000A168A11EE200A168A1173080A168A1140
:1024E200EE200A168A110A168A11E5200A168A11A6
:1024F2001430F5007930F400F40B7D2AF50B7D2AB7
:10250200822A0800F9009D2A7808FF0077088400D3
:102512000A168A1100200A168A11F30079080A168F
:102522008A115C220A168A110130F7070318F80A89
:102532000030F8070130F907780883120313FF000F
:10254200770884000A168A1100200A168A11003AB6
:10255200031DAC2AAD2A852A0800F4000A168A1146
:10256200DC200A168A11D0300A168A11EE200A16C9
:102572008A1174080A168A11EE200A168A110A169E
:102582008A11F9200A168A11D1300A168A11EE2010
:102592000A168A1100300A168A11CF210A168A11E8
:1025A200F5000A168A11E5200A168A117508080034
:1025B200F9006730F6008830F7008230F8000A161A
:1025C2008A112F230A168A118E30F6008830F700FE
:1025D200C230F8000A168A112F230A168A114030D7
:1025E2007906031DF52AF62A022BFF308312031304
:1025F200D900FF30DA00FF30D700FF30D8000C30AE
:10260200032B0D300800F4000A168A11DC200A168A
:102612008A11A0300A168A11EE200A168A1174084D
:102622000A168A11EE200A168A110A168A11F92050
:102632000A168A11A1300A168A11EE200A168A1188
:1026420000300A168A11CF210A168A11F5000A16DD
:102652008A11E5200A168A1175080800F201780825
:102662000A168A11AF210A168A114D2BF201F20ABB
:102672007708FF00760884000A168A1100200A16DD
:102682008A110A168A11AF210A168A110130F60739
:102692000318F70A0030F707770883120313FF00C5
:1026A200760884000A168A1100200A168A11003A56
:1026B200031D5C2B5D2B372B080083120313981725
:1026C20018162608AA002708AB002808AC0029081B
:1026D200AD0004300310AA0DAB0DAC0DAD0DFF3EE5
:1026E200031D6B2B2D08F5002C08F4002B08F300BA
:1026F2002A08F2000130F9003130F8002D30F700DD
:102702000030F6000A128A117E260A168A11720811
:10271200FF3E8316031399000800831203139415D6
:102722002608AA002708AB002808AC002908AD003B
:1027320002300310AA0DAB0DAC0DAD0DFF3E031D13
:102742009A2B2D08F5002C08F4002B08F3002A0818
:10275200F2000130F9003130F8002D30F70000307E
:10276200F6000A128A117E260A168A117208FF3EA4
:102772008316031393008312031394160800831223
:1027820003138C1CC52BC62BF12B013083160313AC
:10279200A0070318A10A0030A107E2302006043086
:1027A20003192106031DD62BD72BEF2BA001A10164
:1027B200831203134E084F040319E02BE12BE82B7D
:1027C2000130CE020030031CCF03CF02EF2B5C0896
:1027D2000319EC2BED2BEF2B0130DC0283128C1052
:1027E20071088A00700E8300FE0E7E0E09007208C8
:1027F20073040319FD2BFE2B2B2C0130F6000A2C3F
:1028020001300310F20DF30DFF3E031D022C0130C7
:10281200F607F31F0D2C0E2C012C73087502031DF5
:10282200142C72087402031C172C182C1E2C72080C
:10283200F4027308031CF503F50201300310F30CD4
:10284200F20CFF3E031D1F2C0130F602031D2A2C41
:102852002B2C0E2C7508F3007408F20008000030CF
:1028620083120313A9000130A8008630A700A0300C
:10287200A6000A168A118E230A168A110A168A11CE
:1028820045210A168A110A168A11CD200A168A11C2
:102892000A168A110F210A168A110A168A11C120F4
:1028A2000A168A11003083120313A9000030A8000F
:1028B2002530A7008030A6000A168A115E230A1668
:1028C2008A110A168A1127210A168A110B178B17E9
:1028D2000800013083120313D9070318DA0A003003
:1028E200DA070A3059065A04031D782C792C7B2CFE
:1028F200D901DA010A30F20059080A168A1169214F
:102902000A168A11053E83120313A000A430F700B1
:102912000030F80020080A168A1183220A168A114A
:10292200831203135808803AFF0080307F02031D90
:102932009C2C0930570203189F2CA02CA82C013084
:1029420083120313D7070318D80A0030D8070800E8
:102952007208F900D12C0130F5020030031CF60395
:10296200F6027408F8007308F700F30A0319F40A70
:10297200780883120313FF00770884000A168A116D
:1029820000200A168A11FF007908F90A84007F08DC
:10299200831380000008031DCF2CD02CD12CDE2CF9
:1029A20075087604031DD62CD72CAC2CDE2C7908A6
:1029B2008400831380010130F9070130F5020030F1
:1029C200031CF603F602750A031DEB2C760A031D9F
:1029D200EB2CEC2CD82C080083120313A101A201CA
:1029E200760877040319F62CF72C2C2D0130A00061
:1029F200032D01300310F60DF70DFF3E031DFB2CD6
:102A02000130A007F71F062D072DFA2C0130031005
:102A1200A10DA20DFF3E031D082D77087902031DAB
:102A2200142D76087802031C172D182D1F2D7608F9
:102A3200F8027708031CF903F9022114013003108C
:102A4200F70CF60CFF3E031D202D0130A002031DE2
:102A52002B2D2C2D072D2208F7002108F600080047
:102A62000130F4020030031CF503F502740A031D61
:102A72003E2D750A031D3E2D3F2D4C2DF201F30113
:102A82007B2D0130F2070130F3070130F4020030F0
:102A9200031CF503F502720884008313000803196E
:102AA200532D542D6D2D73088400000803195A2DDF
:102AB2005B2D6D2D740875040319602D612D6D2D2C
:102AC200730884000008F600720884000008760685
:102AD20003196C2D6D2D422D730884000008F60039
:102AE200720884000008F70076087702F200F3010A
:102AF200031CF3030800AD30F6008730F700803086
:102B0200F8000A168A112F230A168A110A168A1148
:102B1200D8260A168A11831203132508F6000130FB
:102B2200F700CB30F8000A168A112F230A168A11F1
:102B3200CE3083120313A3000A30F2000030F300F8
:102B42002608A700A8012708F4002808F5000A169D
:102B52008A119D270A168A117208303E0A168A11B6
:102B62007C210A168A11CF3083120313A3000A3084
:102B7200F2000030F3002608A700A8012708F4009D
:102B82002808F5000A168A11D0250A168A11720839
:102B9200303E0A168A117C210A168A110800F701B2
:102BA200F51FD42DD52DDC2DF409F509F40A0319EE
:102BB200F50A0130F700F31FDF2DE02DE52DF209B4
:102BC200F309F20A0319F30A720873040319EA2DCE
:102BD200EB2D182E0130F600F72D01300310F20D07
:102BE200F30DFF3E031DEF2D0130F607F31FFA2D03
:102BF200FB2DEE2D73087502031D012E720874025F
:102C0200031C042E052E0B2E7208F4027308031CFB
:102C1200F503F50201300310F30CF20CFF3E031D25
:102C22000C2E0130F602031D172E182EFB2D7708ED
:102C320003191C2E1D2E222EF409F509F40A03197C
:102C4200F50A7508F3007408F2000800C330F700B3
:102C5200CD30F600F60B2B2EF70B2B2EF201333074
:102C62000A168A11AF210A168A111B30F7009E300C
:102C7200F600F60B3A2EF70B3A2E0000F201333033
:102C82000A168A11AF210A168A11A630F600F60B2F
:102C9200482E0000F20133300A168A11AF210A16BB
:102CA2008A11532E542E0000F20138300A168A116E
:102CB200AF210A168A11A630F600F60B5E2E00002E
:102CC200F20101300A168A11AF210A168A11043064
:102CD200F7003D30F600F60B6C2EF70B6C2E712EC2
:102CE200F2010C300A168A11AF210A168A11A63097
:102CF200F600F60B7A2E000008000A168A113A270F
:102D02000A168A11A430F200B830F3000030F40041
:102D12000630F5000030F6000A168A11A9240A16B8
:102D22008A11AA30F200831203132108F300220849
:102D3200F4000230F5000030F6000A168A11A924C8
:102D42000A168A110A30F2000030F30083120313CC
:102D52002308A400A5012408F4002508F5000A169A
:102D62008A119D270A168A117208303E83160313B0
:102D7200AC000A30F2000030F30083120313230880
:102D8200A400A5012408F4002508F5000A168A11FA
:102D9200D0250A168A117208303E83160313AD003D
:102DA200AE010A168A116A240A168A1108000A1646
:102DB2008A113A270A168A11C23083120313A3001A
:102DC2008316031338080A168A117C210A168A11FF
:102DD200C33083120313A3008316031339080A16A0
:102DE2008A117C210A168A11C43083120313A300AC
:102DF2003A300A168A117C210A168A11C5308312CA
:102E02000313A300831603133A080A168A117C21BE
:102E12000A168A11C63083120313A3008316031302
:102E22003B080A168A117C210A168A11C7308312BE
:102E32000313A3003A300A168A117C210A168A115A
:102E4200C83083120313A300831603133C080A1627
:102E52008A117C210A168A11C93083120313A30036
:102E6200831603133D080A168A117C210A168A1159
:102E7200080002300A168A11AE220A168A1183123B
:102E82000313C30001300A168A11AE220A168A11F0
:102E920083120313C40000300A168A11AE220A16E6
:102EA2008A1183120313C5004308F600043003108D
:102EB200F60CFF3E031D582F76080339303E831669
:102EC2000313B8008312031343080F39303E8316ED
:102ED2000313B900831203134408F60004300310ED
:102EE200F60CFF3E031D702F76080739303E83161D
:102EF2000313BA008312031344080F39303E8316BA
:102F02000313BB00831203134508F60004300310B9
:102F1200F60CFF3E031D882F76080739303E8316D4
:102F22000313BC008312031345080F39303E831686
:102F32000313BD00BE010800F701F31FA12FA22F4A
:102F4200A92FF209F309F20A0319F30A0130F70073
:102F5200F51FAC2FAD2FB42FF409F509F40A0319AC
:102F6200F50A0130F706F801F90172087304031932
:102F7200BB2FBC2FF12F0130F600C82F01300310F8
:102F8200F20DF30DFF3E031DC02F0130F607F31FB4
:102F9200CB2FCC2FBF2F01300310F80DF90DFF3EC0
:102FA200031DCD2F73087502031DD92F72087402F9
:102FB200031CDC2FDD2FE42F7208F4027308031CBC
:102FC200F503F502781401300310F30CF20CFF3E06
:102FD200031DE52F0130F602031DF02FF12FCC2F38
:102FE20077080319F52FF62FFB2FF809F909F80ACC
:0E2FF2000319F90A7908F3007808F2000800C4
:02400E00FB3F76
:00000001FF
